:100375003230002F005B005D003A002E004920005E
:100385004C756F2059696E672100205265642043C2
:100395006F6E74726F6C002049522D434F44452097
:1003A5002D2D480018180708080807000000000050
:1003B500FF0000000000000E00FF00000000FF002D
:1003C5000E00FF000000FFF5FBF1FF0000FE08FE38
:1003D5000A0AFF00000400FF000A1100001F111F98
:1003E50011111F0003070F1F1F1F1F1F181E1F1F9F
:1003F5001F1F1F1F071F1F1F1F1F1F1F10181C1E3A
:100405001E1E1E1E0F070301000000001F1F1F1FD9
:100415001F0F07011F1F1F1F1F1C18001C1810008E
:10042500000000001F1C1F1E1F1E1F1F1E1F1E1F5A
:100693001030205B7777772E797577782E6E6574B7
:1006A3005D2010404C4344313630322074657374FE
:1006B300206F6B21062A00000000000001210002C8
:0B06C300220000C100012500015200D0
:0F08640075A0FFC293D2B3D2B420A7FDC2B422B5
:090836007FE87E031207E67F0152
:0E083F001208648FA0C293C2B3D2B4C2B42216
:0E0873001208648FA0D293C2B3D2B4C2B422D2
:0606CF007BFF7A0379783D
:1006D5008B0A8A0B890CEF4480FF12083FAB0AAAEC
:1006E5000BA90C1201046013050CE50C7002050B37
:1006F50014F9120104FF12087380E2AB0AAA0BA9D0
:050705000CE402011DDF
:09084D0075F00A84E5F02430FD89
:0E085600AE05EF4480FF12083FAF06020873A4
:02079900AE07A9
:10079B007F0612083F7F4012083FE4FDBE0106EDC5
:1007AB009003A98007BE0209ED9003E993FF12089D
:0507BB00730DBD40E7D5
:0107C0002216
:10081E007F3812083F7F0112083F0F12083F7F06F4
:08082E0012083F7F0C02083F95
:10073E00E55124D0FFE43407AB07FAEB5403700CF9
:10074E00FC7D64AE0212012FED4C700FAE02AF03B2
:0E075E007C017D9012012FED4C7002D322C35E
:01076C00226A
:10058300780A7C007D007BFF7A0479297E007F0C4A
:100593001200DE05240550E550D39407400375503F
:1005A3000174092528F8E6FFE524D39F401F1207AD
:1005B3003E5009E528B4020475241D227524010563
:0D05C30028E528D3940C400575280105514A
:0105D0002208
:1007C100758911758C3C758AB0D2AFD2A9D28C755E
:1007D100240475280575510E755007752614752763
:0507E1001EE4F52922D1
:100285007BFF7A0379757F801206D5E55175F00AF3
:10029500842430FD7F82120856E5517F8312084D74
:1002A5007F841206CFE52875F00A842430FD7F850A
:1002B500120856E5287F8612084D7F871206CFE57E
:1002C5002475F00A842430FD7F88120856E52475CC
:1002D500F00A84E5F02430FD7F891208567BFF7A09
:1002E50003797A7F8B1206D5E55075F00A84ADF057
:1002F5007F8C1208567BFF7A03797C7F8D1206D599
:10030500E52675F00A842430FD7F40120856E5265F
:1003150075F00A84E5F02430FD7F411208567BFF15
:100325007A03797E7F421206D5E52775F00A842483
:1003350030FD7F43120856E52775F00A84E5F02461
:1003450030FD7F441208567BFF7A0379807F451282
:1003550006D5E52975F00A842430FD7F4612085636
:10036500E52975F00A84E5F02430FD7F470208563B
:03000B00020613D7
:10061300C0E0C0D00552E552D3941340297552006F
:100623000529E529D3943B401D7529000527E527B6
:10063300D3943B40117527000526E526D394174034
:1006430005752600D200758C3C758AB0D0D0D0E0F9
:010653003274
:1007E600EF1FAA0670011E4A6013E4FCFDC3ED94D8
:0D07F60058EC940250EA0DBD00010C80F09B
:0108030022D2
:10052600E4F5091207C112081E12076D7B007A0056
:1005360079307F801206D57B007A0079407F4012A1
:1005460006D512083612070A1208367BFF7A037997
:100556008F7F801206D57BFF7A03799C7F40120637
:10056600D512083612079912028530000512058346
:0D057600C2001206541205D11204C180EA21
:10070A00E4FC7F021207997BFF7A0379827F8112C8
:10071A0006D5ECC39404EC500424838002243FFFE2
:10072A00AD041208560CBC08E97BFF7A0379857F71
:04073A00470206D597
:10065400E52CC4540FF52EE52C540FF52FE52ED3BD
:100664009409E52E40052437FB80032430FB7CC924
:100674007FC9AD03120856E52FD39409E52F400531
:0F0684002437FB80032430FB7FCAAD03020856E6
:1004C100E4F50AFCF50BAE22AF237D6412012F8FF8
:1004D1000AAE22AF237C007D6412012F7E007F0AC9
:1004E100CFCDCFCECCCE12012F8F0BAE22AF237C3E
:1004F100007D0A12012FAC05E50AD394094003E4FB
:10050100F50A7BCDE50A2430FA7FCDFD1208560BA2
:10051100E50B2430FA7FCEFD120856EC2430FA7F29
:05052100CFFD020856A9
:1005D1007B8EE523540FFCE522C4F854F0C8E523D3
:1005E100C4540F48FED39409EE40052437FA800322
:1005F1002430FAAF03AD021208567B8FECD3940975
:10060100EC40052437FA80032430FAAF03AD02022F
:02061100085689
:040804007F017E00F2
:10080800EF1FAA0670011E4A600BE4FDEDC3945366
:0508180050EE0D80F719
:01081D0022B8
:10076D00900003D288D2A8D2AFD2B2D2977FF47EB6
:10077D00011207E6C2977FF47E011207E6E58215A6
:0B078D008270021583E582458370E056
:01079800223E
:0300030002018473
:10018400C0E0C083C082C0D075D000C000C002C02F
:0701940004C005C006C0070E
:10019B007521007F467E0012080830B20302027000
:1001AB009003E820B218D3E5829400E583940040D5
:1001BB000D120804E582158270E9158380E520B2E3
:1001CB00030202709001F430B218D3E5829400E57B
:1001DB00839400400D120804E582158270E91583A3
:1001EB0080E5E4FC75080090003C20B218D3E58252
:1001FB009400E5839400400D120804E5821582708B
:10020B00E9158380E59001F430B223D3E5829400A5
:10021B00E583940040181208040521E582158270CD
:10022B00021583E521D3941E40DED2A88037742AB1
:10023B002CF8C000E6C313D000F6E521C3940840A8
:10024B0008742A2CF8E64480F67521000508E508A9
:10025B00C3940840920CEC64047089B2970523E5B3
:05026B002370020522D2
:10027000D007D006D005D004D002D000D0D0D08294
:05028000D083D0E03244
:03000000020435C2
:0C043500787FE4F6D8FD75815202047C4B
:10000E00E709F608DFFA8046E709F208DFFA803ED4
:10001E0088828C83E709F0A3DFFA8032E309F608C1
:10002E00DFFA8078E309F208DFFA807088828C8329
:10003E00E309F0A3DFFA806489828A83E0A3F608DD
:10004E00DFFA805889828A83E0A3F208DFFA804CB7
:10005E0080D280FA80C680D4806980F2803380108E
:10006E0080A680EA809A80A880DA80E280CA8033F7
:10007E0089828A83ECFAE493A3C8C582C8CCC5836F
:10008E00CCF0A3C8C582C8CCC583CCDFE9DEE7803F
:10009E000D89828A83E493A3F608DFF9ECFAA9F0BE
:1000AE00EDFB2289828A83ECFAE0A3C8C582C8CC14
:1000BE00C583CCF0A3C8C582C8CCC583CCDFEADE2D
:1000CE00E880DB89828A83E493A3F208DFF980CC8F
:1000DE0088F0EF60010E4E60C388F0ED2402B40488
:1000EE000050B9F582EB2402B4040050AF2323452F
:0600FE00822390005E73F6
:10010400BB010689828A83E0225002E722BBFE02F9
:09011400E32289828A83E493222C
:10011D00BB010689828A83F0225002F722BBFE01C1
:02012D00F322BB
:10012F00BC000BBE0029EF8DF084FFADF022E4CCB4
:10013F00F875F008EF2FFFEE33FEEC33FCEE9DEC7D
:10014F00984005FCEE9DFE0FD5F0E9E4CEFD22EDC3
:10015F00F8F5F0EE8420D21CFEADF075F008EF2F0D
:10016F00FFED33FD4007985006D5F0F222C398FDFE
:05017F000FD5F0EA229B
:10044100020526E493A3F8E493A34003F68001F2A6
:1004510008DFF48029E493A3F85407240CC8C333BC
:10046100C4540F4420C8834004F456800146F6DF8B
:10047100E4800B0102040810204080900693E47E82
:10048100019360BCA3FF543F30E509541FFEE49380
:10049100A360010ECF54C025E060A840B8E493A347
:1004A100FAE493A3F8E493A3C8C582C8CAC583CA72
:1004B100F0A3C8C582C8CAC583CADFE9DEE780BE2A
:0106CE00002B
:00000001FF
